{
  "_format": "hh-sol-artifact-1",
  "contractName": "AneemaCollection",
  "sourceName": "contracts/AneemaCollection.sol",
  "abi": [
    {
      "inputs": [],
      "stateMutability": "nonpayable",
      "type": "constructor"
    },
    {
      "inputs": [
        {
          "internalType": "address",
          "name": "sender",
          "type": "address"
        },
        {
          "internalType": "uint256",
          "name": "tokenId",
          "type": "uint256"
        },
        {
          "internalType": "address",
          "name": "owner",
          "type": "address"
        }
      ],
      "name": "ERC721IncorrectOwner",
      "type": "error"
    },
    {
      "inputs": [
        {
          "internalType": "address",
          "name": "operator",
          "type": "address"
        },
        {
          "internalType": "uint256",
          "name": "tokenId",
          "type": "uint256"
        }
      ],
      "name": "ERC721InsufficientApproval",
      "type": "error"
    },
    {
      "inputs": [
        {
          "internalType": "address",
          "name": "approver",
          "type": "address"
        }
      ],
      "name": "ERC721InvalidApprover",
      "type": "error"
    },
    {
      "inputs": [
        {
          "internalType": "address",
          "name": "operator",
          "type": "address"
        }
      ],
      "name": "ERC721InvalidOperator",
      "type": "error"
    },
    {
      "inputs": [
        {
          "internalType": "address",
          "name": "owner",
          "type": "address"
        }
      ],
      "name": "ERC721InvalidOwner",
      "type": "error"
    },
    {
      "inputs": [
        {
          "internalType": "address",
          "name": "receiver",
          "type": "address"
        }
      ],
      "name": "ERC721InvalidReceiver",
      "type": "error"
    },
    {
      "inputs": [
        {
          "internalType": "address",
          "name": "sender",
          "type": "address"
        }
      ],
      "name": "ERC721InvalidSender",
      "type": "error"
    },
    {
      "inputs": [
        {
          "internalType": "uint256",
          "name": "tokenId",
          "type": "uint256"
        }
      ],
      "name": "ERC721NonexistentToken",
      "type": "error"
    },
    {
      "inputs": [
        {
          "internalType": "address",
          "name": "owner",
          "type": "address"
        }
      ],
      "name": "OwnableInvalidOwner",
      "type": "error"
    },
    {
      "inputs": [
        {
          "internalType": "address",
          "name": "account",
          "type": "address"
        }
      ],
      "name": "OwnableUnauthorizedAccount",
      "type": "error"
    },
    {
      "anonymous": false,
      "inputs": [
        {
          "indexed": true,
          "internalType": "address",
          "name": "owner",
          "type": "address"
        },
        {
          "indexed": true,
          "internalType": "address",
          "name": "approved",
          "type": "address"
        },
        {
          "indexed": true,
          "internalType": "uint256",
          "name": "tokenId",
          "type": "uint256"
        }
      ],
      "name": "Approval",
      "type": "event"
    },
    {
      "anonymous": false,
      "inputs": [
        {
          "indexed": true,
          "internalType": "address",
          "name": "owner",
          "type": "address"
        },
        {
          "indexed": true,
          "internalType": "address",
          "name": "operator",
          "type": "address"
        },
        {
          "indexed": false,
          "internalType": "bool",
          "name": "approved",
          "type": "bool"
        }
      ],
      "name": "ApprovalForAll",
      "type": "event"
    },
    {
      "anonymous": false,
      "inputs": [
        {
          "indexed": true,
          "internalType": "address",
          "name": "previousOwner",
          "type": "address"
        },
        {
          "indexed": true,
          "internalType": "address",
          "name": "newOwner",
          "type": "address"
        }
      ],
      "name": "OwnershipTransferred",
      "type": "event"
    },
    {
      "anonymous": false,
      "inputs": [
        {
          "indexed": true,
          "internalType": "address",
          "name": "from",
          "type": "address"
        },
        {
          "indexed": true,
          "internalType": "address",
          "name": "to",
          "type": "address"
        },
        {
          "indexed": true,
          "internalType": "uint256",
          "name": "tokenId",
          "type": "uint256"
        }
      ],
      "name": "Transfer",
      "type": "event"
    },
    {
      "inputs": [
        {
          "internalType": "address",
          "name": "to",
          "type": "address"
        },
        {
          "internalType": "uint256",
          "name": "tokenId",
          "type": "uint256"
        }
      ],
      "name": "approve",
      "outputs": [],
      "stateMutability": "nonpayable",
      "type": "function"
    },
    {
      "inputs": [
        {
          "internalType": "address",
          "name": "owner",
          "type": "address"
        }
      ],
      "name": "balanceOf",
      "outputs": [
        {
          "internalType": "uint256",
          "name": "",
          "type": "uint256"
        }
      ],
      "stateMutability": "view",
      "type": "function"
    },
    {
      "inputs": [
        {
          "internalType": "uint256",
          "name": "tokenId",
          "type": "uint256"
        }
      ],
      "name": "burn",
      "outputs": [],
      "stateMutability": "nonpayable",
      "type": "function"
    },
    {
      "inputs": [
        {
          "internalType": "uint256",
          "name": "tokenId",
          "type": "uint256"
        }
      ],
      "name": "getApproved",
      "outputs": [
        {
          "internalType": "address",
          "name": "",
          "type": "address"
        }
      ],
      "stateMutability": "view",
      "type": "function"
    },
    {
      "inputs": [
        {
          "internalType": "address",
          "name": "owner",
          "type": "address"
        },
        {
          "internalType": "address",
          "name": "operator",
          "type": "address"
        }
      ],
      "name": "isApprovedForAll",
      "outputs": [
        {
          "internalType": "bool",
          "name": "",
          "type": "bool"
        }
      ],
      "stateMutability": "view",
      "type": "function"
    },
    {
      "inputs": [
        {
          "internalType": "address",
          "name": "to",
          "type": "address"
        }
      ],
      "name": "mint",
      "outputs": [],
      "stateMutability": "nonpayable",
      "type": "function"
    },
    {
      "inputs": [
        {
          "internalType": "address",
          "name": "recipient",
          "type": "address"
        },
        {
          "internalType": "string",
          "name": "tokenURI",
          "type": "string"
        }
      ],
      "name": "mintTo",
      "outputs": [
        {
          "internalType": "uint256",
          "name": "",
          "type": "uint256"
        }
      ],
      "stateMutability": "nonpayable",
      "type": "function"
    },
    {
      "inputs": [],
      "name": "name",
      "outputs": [
        {
          "internalType": "string",
          "name": "",
          "type": "string"
        }
      ],
      "stateMutability": "view",
      "type": "function"
    },
    {
      "inputs": [],
      "name": "owner",
      "outputs": [
        {
          "internalType": "address",
          "name": "",
          "type": "address"
        }
      ],
      "stateMutability": "view",
      "type": "function"
    },
    {
      "inputs": [
        {
          "internalType": "uint256",
          "name": "tokenId",
          "type": "uint256"
        }
      ],
      "name": "ownerOf",
      "outputs": [
        {
          "internalType": "address",
          "name": "",
          "type": "address"
        }
      ],
      "stateMutability": "view",
      "type": "function"
    },
    {
      "inputs": [],
      "name": "renounceOwnership",
      "outputs": [],
      "stateMutability": "nonpayable",
      "type": "function"
    },
    {
      "inputs": [
        {
          "internalType": "address",
          "name": "from",
          "type": "address"
        },
        {
          "internalType": "address",
          "name": "to",
          "type": "address"
        },
        {
          "internalType": "uint256",
          "name": "tokenId",
          "type": "uint256"
        }
      ],
      "name": "safeTransferFrom",
      "outputs": [],
      "stateMutability": "nonpayable",
      "type": "function"
    },
    {
      "inputs": [
        {
          "internalType": "address",
          "name": "from",
          "type": "address"
        },
        {
          "internalType": "address",
          "name": "to",
          "type": "address"
        },
        {
          "internalType": "uint256",
          "name": "tokenId",
          "type": "uint256"
        },
        {
          "internalType": "bytes",
          "name": "data",
          "type": "bytes"
        }
      ],
      "name": "safeTransferFrom",
      "outputs": [],
      "stateMutability": "nonpayable",
      "type": "function"
    },
    {
      "inputs": [
        {
          "internalType": "address",
          "name": "operator",
          "type": "address"
        },
        {
          "internalType": "bool",
          "name": "approved",
          "type": "bool"
        }
      ],
      "name": "setApprovalForAll",
      "outputs": [],
      "stateMutability": "nonpayable",
      "type": "function"
    },
    {
      "inputs": [
        {
          "internalType": "uint256",
          "name": "tokenId",
          "type": "uint256"
        },
        {
          "internalType": "string",
          "name": "tokenURI",
          "type": "string"
        }
      ],
      "name": "setTokenURI",
      "outputs": [],
      "stateMutability": "nonpayable",
      "type": "function"
    },
    {
      "inputs": [
        {
          "internalType": "bytes4",
          "name": "interfaceId",
          "type": "bytes4"
        }
      ],
      "name": "supportsInterface",
      "outputs": [
        {
          "internalType": "bool",
          "name": "",
          "type": "bool"
        }
      ],
      "stateMutability": "view",
      "type": "function"
    },
    {
      "inputs": [],
      "name": "symbol",
      "outputs": [
        {
          "internalType": "string",
          "name": "",
          "type": "string"
        }
      ],
      "stateMutability": "view",
      "type": "function"
    },
    {
      "inputs": [
        {
          "internalType": "uint256",
          "name": "tokenId",
          "type": "uint256"
        }
      ],
      "name": "tokenURI",
      "outputs": [
        {
          "internalType": "string",
          "name": "",
          "type": "string"
        }
      ],
      "stateMutability": "view",
      "type": "function"
    },
    {
      "inputs": [
        {
          "internalType": "address",
          "name": "from",
          "type": "address"
        },
        {
          "internalType": "address",
          "name": "to",
          "type": "address"
        },
        {
          "internalType": "uint256",
          "name": "tokenId",
          "type": "uint256"
        }
      ],
      "name": "transferFrom",
      "outputs": [],
      "stateMutability": "nonpayable",
      "type": "function"
    },
    {
      "inputs": [
        {
          "internalType": "address",
          "name": "newOwner",
          "type": "address"
        }
      ],
      "name": "transferOwnership",
      "outputs": [],
      "stateMutability": "nonpayable",
      "type": "function"
    }
  ],
  "bytecode": "0x6080604052600060075560006008553480156200001b57600080fd5b506040518060400160405280601581526020017f416e65656d6120436f6c6c656374696f6e204e465400000000000000000000008152506040518060400160405280600481526020017f414e46540000000000000000000000000000000000000000000000000000000081525033828281600090816200009c919062000480565b508060019081620000ae919062000480565b505050600073ffffffffffffffffffffffffffffffffffffffff168173ffffffffffffffffffffffffffffffffffffffff1603620001265760006040517f1e4fbdf70000000000000000000000000000000000000000000000000000000081526004016200011d9190620005ac565b60405180910390fd5b62000137816200014060201b60201c565b505050620005c9565b6000600660009054906101000a900473ffffffffffffffffffffffffffffffffffffffff16905081600660006101000a81548173ffffffffffffffffffffffffffffffffffffffff021916908373ffffffffffffffffffffffffffffffffffffffff1602179055508173ffffffffffffffffffffffffffffffffffffffff168173ffffffffffffffffffffffffffffffffffffffff167f8be0079c531659141344cd1fd0a4f28419497f9722a3daafe3b4186f6b6457e060405160405180910390a35050565b600081519050919050565b7f4e487b7100000000000000000000000000000000000000000000000000000000600052604160045260246000fd5b7f4e487b7100000000000000000000000000000000000000000000000000000000600052602260045260246000fd5b600060028204905060018216806200028857607f821691505b6020821081036200029e576200029d62000240565b5b50919050565b60008190508160005260206000209050919050565b60006020601f8301049050919050565b600082821b905092915050565b600060088302620003087fffffffffffffffffffffffffffffffffffffffffffffffffffffffffffffffff82620002c9565b620003148683620002c9565b95508019841693508086168417925050509392505050565b6000819050919050565b6000819050919050565b6000620003616200035b62000355846200032c565b62000336565b6200032c565b9050919050565b6000819050919050565b6200037d8362000340565b620003956200038c8262000368565b848454620002d6565b825550505050565b600090565b620003ac6200039d565b620003b981848462000372565b505050565b5b81811015620003e157620003d5600082620003a2565b600181019050620003bf565b5050565b601f8211156200043057620003fa81620002a4565b6200040584620002b9565b8101602085101562000415578190505b6200042d6200042485620002b9565b830182620003be565b50505b505050565b600082821c905092915050565b6000620004556000198460080262000435565b1980831691505092915050565b600062000470838362000442565b9150826002028217905092915050565b6200048b8262000206565b67ffffffffffffffff811115620004a757620004a662000211565b5b620004b382546200026f565b620004c0828285620003e5565b600060209050601f831160018114620004f85760008415620004e3578287015190505b620004ef858262000462565b8655506200055f565b601f1984166200050886620002a4565b60005b8281101562000532578489015182556001820191506020850194506020810190506200050b565b868310156200055257848901516200054e601f89168262000442565b8355505b6001600288020188555050505b505050505050565b600073ffffffffffffffffffffffffffffffffffffffff82169050919050565b6000620005948262000567565b9050919050565b620005a68162000587565b82525050565b6000602082019050620005c360008301846200059b565b92915050565b61294c80620005d96000396000f3fe608060405234801561001057600080fd5b506004361061012b5760003560e01c80636a627842116100ad578063a22cb46511610071578063a22cb4651461032c578063b88d4fde14610348578063c87b56dd14610364578063e985e9c514610394578063f2fde38b146103c45761012b565b80636a6278421461029a57806370a08231146102b6578063715018a6146102e65780638da5cb5b146102f057806395d89b411461030e5761012b565b8063162094c4116100f4578063162094c4146101fa57806323b872dd1461021657806342842e0e1461023257806342966c681461024e5780636352211e1461026a5761012b565b806275a3171461013057806301ffc9a71461016057806306fdde0314610190578063081812fc146101ae578063095ea7b3146101de575b600080fd5b61014a60048036038101906101459190611cb0565b6103e0565b6040516101579190611d25565b60405180910390f35b61017a60048036038101906101759190611d98565b61044a565b6040516101879190611de0565b60405180910390f35b61019861052c565b6040516101a59190611e7a565b60405180910390f35b6101c860048036038101906101c39190611ec8565b6105be565b6040516101d59190611f04565b60405180910390f35b6101f860048036038101906101f39190611f1f565b6105da565b005b610214600480360381019061020f9190611f5f565b6105f0565b005b610230600480360381019061022b9190611fbb565b610694565b005b61024c60048036038101906102479190611fbb565b610796565b005b61026860048036038101906102639190611ec8565b6107b6565b005b610284600480360381019061027f9190611ec8565b6107cd565b6040516102919190611f04565b60405180910390f35b6102b460048036038101906102af919061200e565b6107df565b005b6102d060048036038101906102cb919061200e565b610810565b6040516102dd9190611d25565b60405180910390f35b6102ee6108ca565b005b6102f86108de565b6040516103059190611f04565b60405180910390f35b610316610908565b6040516103239190611e7a565b60405180910390f35b61034660048036038101906103419190612067565b61099a565b005b610362600480360381019061035d9190612148565b6109b0565b005b61037e60048036038101906103799190611ec8565b6109cd565b60405161038b9190611e7a565b60405180910390f35b6103ae60048036038101906103a991906121cb565b610b47565b6040516103bb9190611de0565b60405180910390f35b6103de60048036038101906103d9919061200e565b610bdb565b005b60006103ea610c61565b600060016008546103fb919061223a565b9050600860008154809291906104109061226e565b919050555061041f8482610ce8565b8260096000838152602001908152602001600020908161043f91906124c2565b508091505092915050565b60007f80ac58cd000000000000000000000000000000000000000000000000000000007bffffffffffffffffffffffffffffffffffffffffffffffffffffffff1916827bffffffffffffffffffffffffffffffffffffffffffffffffffffffff1916148061051557507f5b5e139f000000000000000000000000000000000000000000000000000000007bffffffffffffffffffffffffffffffffffffffffffffffffffffffff1916827bffffffffffffffffffffffffffffffffffffffffffffffffffffffff1916145b80610525575061052482610de1565b5b9050919050565b60606000805461053b906122e5565b80601f0160208091040260200160405190810160405280929190818152602001828054610567906122e5565b80156105b45780601f10610589576101008083540402835291602001916105b4565b820191906000526020600020905b81548152906001019060200180831161059757829003601f168201915b5050505050905090565b60006105c982610e4b565b506105d382610ed3565b9050919050565b6105ec82826105e7610f10565b610f18565b5050565b6105f8610c61565b600073ffffffffffffffffffffffffffffffffffffffff1661061983610f2a565b73ffffffffffffffffffffffffffffffffffffffff160361066f576040517f08c379a000000000000000000000000000000000000000000000000000000000815260040161066690612606565b60405180910390fd5b8060096000848152602001908152602001600020908161068f91906124c2565b505050565b600073ffffffffffffffffffffffffffffffffffffffff168273ffffffffffffffffffffffffffffffffffffffff16036107065760006040517f64a0ae920000000000000000000000000000000000000000000000000000000081526004016106fd9190611f04565b60405180910390fd5b600061071a8383610715610f10565b610f67565b90508373ffffffffffffffffffffffffffffffffffffffff168173ffffffffffffffffffffffffffffffffffffffff1614610790578382826040517f64283d7b00000000000000000000000000000000000000000000000000000000815260040161078793929190612626565b60405180910390fd5b50505050565b6107b1838383604051806020016040528060008152506109b0565b505050565b6107c96000826107c4610f10565b610f67565b5050565b60006107d882610e4b565b9050919050565b6107e7610c61565b6001600760008282546107fa919061223a565b9250508190555061080d81600754610ce8565b50565b60008073ffffffffffffffffffffffffffffffffffffffff168273ffffffffffffffffffffffffffffffffffffffff16036108835760006040517f89c62b6400000000000000000000000000000000000000000000000000000000815260040161087a9190611f04565b60405180910390fd5b600360008373ffffffffffffffffffffffffffffffffffffffff1673ffffffffffffffffffffffffffffffffffffffff168152602001908152602001600020549050919050565b6108d2610c61565b6108dc6000611181565b565b6000600660009054906101000a900473ffffffffffffffffffffffffffffffffffffffff16905090565b606060018054610917906122e5565b80601f0160208091040260200160405190810160405280929190818152602001828054610943906122e5565b80156109905780601f1061096557610100808354040283529160200191610990565b820191906000526020600020905b81548152906001019060200180831161097357829003601f168201915b5050505050905090565b6109ac6109a5610f10565b8383611247565b5050565b6109bb848484610694565b6109c7848484846113b6565b50505050565b6060600073ffffffffffffffffffffffffffffffffffffffff166109f083610f2a565b73ffffffffffffffffffffffffffffffffffffffff1603610a46576040517f08c379a0000000000000000000000000000000000000000000000000000000008152600401610a3d906126cf565b60405180910390fd5b6000600960008481526020019081526020016000208054610a66906122e5565b905011610aa357610a7561156d565b610a7e8361158d565b604051602001610a8f929190612777565b604051602081830303815290604052610b40565b600960008381526020019081526020016000208054610ac1906122e5565b80601f0160208091040260200160405190810160405280929190818152602001828054610aed906122e5565b8015610b3a5780601f10610b0f57610100808354040283529160200191610b3a565b820191906000526020600020905b815481529060010190602001808311610b1d57829003601f168201915b50505050505b9050919050565b6000600560008473ffffffffffffffffffffffffffffffffffffffff1673ffffffffffffffffffffffffffffffffffffffff16815260200190815260200160002060008373ffffffffffffffffffffffffffffffffffffffff1673ffffffffffffffffffffffffffffffffffffffff16815260200190815260200160002060009054906101000a900460ff16905092915050565b610be3610c61565b600073ffffffffffffffffffffffffffffffffffffffff168173ffffffffffffffffffffffffffffffffffffffff1603610c555760006040517f1e4fbdf7000000000000000000000000000000000000000000000000000000008152600401610c4c9190611f04565b60405180910390fd5b610c5e81611181565b50565b610c69610f10565b73ffffffffffffffffffffffffffffffffffffffff16610c876108de565b73ffffffffffffffffffffffffffffffffffffffff1614610ce657610caa610f10565b6040517f118cdaa7000000000000000000000000000000000000000000000000000000008152600401610cdd9190611f04565b60405180910390fd5b565b600073ffffffffffffffffffffffffffffffffffffffff168273ffffffffffffffffffffffffffffffffffffffff1603610d5a5760006040517f64a0ae92000000000000000000000000000000000000000000000000000000008152600401610d519190611f04565b60405180910390fd5b6000610d6883836000610f67565b9050600073ffffffffffffffffffffffffffffffffffffffff168173ffffffffffffffffffffffffffffffffffffffff1614610ddc5760006040517f73c6ac6e000000000000000000000000000000000000000000000000000000008152600401610dd39190611f04565b60405180910390fd5b505050565b60007f01ffc9a7000000000000000000000000000000000000000000000000000000007bffffffffffffffffffffffffffffffffffffffffffffffffffffffff1916827bffffffffffffffffffffffffffffffffffffffffffffffffffffffff1916149050919050565b600080610e5783610f2a565b9050600073ffffffffffffffffffffffffffffffffffffffff168173ffffffffffffffffffffffffffffffffffffffff1603610eca57826040517f7e273289000000000000000000000000000000000000000000000000000000008152600401610ec19190611d25565b60405180910390fd5b80915050919050565b60006004600083815260200190815260200160002060009054906101000a900473ffffffffffffffffffffffffffffffffffffffff169050919050565b600033905090565b610f25838383600161165b565b505050565b60006002600083815260200190815260200160002060009054906101000a900473ffffffffffffffffffffffffffffffffffffffff169050919050565b600080610f7384610f2a565b9050600073ffffffffffffffffffffffffffffffffffffffff168373ffffffffffffffffffffffffffffffffffffffff1614610fb557610fb4818486611820565b5b600073ffffffffffffffffffffffffffffffffffffffff168173ffffffffffffffffffffffffffffffffffffffff161461104657610ff760008560008061165b565b6001600360008373ffffffffffffffffffffffffffffffffffffffff1673ffffffffffffffffffffffffffffffffffffffff168152602001908152602001600020600082825403925050819055505b600073ffffffffffffffffffffffffffffffffffffffff168573ffffffffffffffffffffffffffffffffffffffff16146110c9576001600360008773ffffffffffffffffffffffffffffffffffffffff1673ffffffffffffffffffffffffffffffffffffffff168152602001908152602001600020600082825401925050819055505b846002600086815260200190815260200160002060006101000a81548173ffffffffffffffffffffffffffffffffffffffff021916908373ffffffffffffffffffffffffffffffffffffffff160217905550838573ffffffffffffffffffffffffffffffffffffffff168273ffffffffffffffffffffffffffffffffffffffff167fddf252ad1be2c89b69c2b068fc378daa952ba7f163c4a11628f55a4df523b3ef60405160405180910390a4809150509392505050565b6000600660009054906101000a900473ffffffffffffffffffffffffffffffffffffffff16905081600660006101000a81548173ffffffffffffffffffffffffffffffffffffffff021916908373ffffffffffffffffffffffffffffffffffffffff1602179055508173ffffffffffffffffffffffffffffffffffffffff168173ffffffffffffffffffffffffffffffffffffffff167f8be0079c531659141344cd1fd0a4f28419497f9722a3daafe3b4186f6b6457e060405160405180910390a35050565b600073ffffffffffffffffffffffffffffffffffffffff168273ffffffffffffffffffffffffffffffffffffffff16036112b857816040517f5b08ba180000000000000000000000000000000000000000000000000000000081526004016112af9190611f04565b60405180910390fd5b80600560008573ffffffffffffffffffffffffffffffffffffffff1673ffffffffffffffffffffffffffffffffffffffff16815260200190815260200160002060008473ffffffffffffffffffffffffffffffffffffffff1673ffffffffffffffffffffffffffffffffffffffff16815260200190815260200160002060006101000a81548160ff0219169083151502179055508173ffffffffffffffffffffffffffffffffffffffff168373ffffffffffffffffffffffffffffffffffffffff167f17307eab39ab6107e8899845ad3d59bd9653f200f220920489ca2b5937696c31836040516113a99190611de0565b60405180910390a3505050565b60008373ffffffffffffffffffffffffffffffffffffffff163b1115611567578273ffffffffffffffffffffffffffffffffffffffff1663150b7a026113fa610f10565b8685856040518563ffffffff1660e01b815260040161141c94939291906127fb565b6020604051808303816000875af192505050801561145857506040513d601f19601f82011682018060405250810190611455919061285c565b60015b6114dc573d8060008114611488576040519150601f19603f3d011682016040523d82523d6000602084013e61148d565b606091505b5060008151036114d457836040517f64a0ae920000000000000000000000000000000000000000000000000000000081526004016114cb9190611f04565b60405180910390fd5b805181602001fd5b63150b7a0260e01b7bffffffffffffffffffffffffffffffffffffffffffffffffffffffff1916817bffffffffffffffffffffffffffffffffffffffffffffffffffffffff19161461156557836040517f64a0ae9200000000000000000000000000000000000000000000000000000000815260040161155c9190611f04565b60405180910390fd5b505b50505050565b60606040518060600160405280603581526020016128e260359139905090565b60606000600161159c846118e4565b01905060008167ffffffffffffffff8111156115bb576115ba611b85565b5b6040519080825280601f01601f1916602001820160405280156115ed5781602001600182028036833780820191505090505b509050600082602001820190505b600115611650578080600190039150507f3031323334353637383961626364656600000000000000000000000000000000600a86061a8153600a858161164457611643612889565b5b049450600085036115fb575b819350505050919050565b80806116945750600073ffffffffffffffffffffffffffffffffffffffff168273ffffffffffffffffffffffffffffffffffffffff1614155b156117c85760006116a484610e4b565b9050600073ffffffffffffffffffffffffffffffffffffffff168373ffffffffffffffffffffffffffffffffffffffff161415801561170f57508273ffffffffffffffffffffffffffffffffffffffff168173ffffffffffffffffffffffffffffffffffffffff1614155b801561172257506117208184610b47565b155b1561176457826040517fa9fbf51f00000000000000000000000000000000000000000000000000000000815260040161175b9190611f04565b60405180910390fd5b81156117c657838573ffffffffffffffffffffffffffffffffffffffff168273ffffffffffffffffffffffffffffffffffffffff167f8c5be1e5ebec7d5bd14f71427d1e84f3dd0314c0f7b2291e5b200ac8c7c3b92560405160405180910390a45b505b836004600085815260200190815260200160002060006101000a81548173ffffffffffffffffffffffffffffffffffffffff021916908373ffffffffffffffffffffffffffffffffffffffff16021790555050505050565b61182b838383611a37565b6118df57600073ffffffffffffffffffffffffffffffffffffffff168373ffffffffffffffffffffffffffffffffffffffff16036118a057806040517f7e2732890000000000000000000000000000000000000000000000000000000081526004016118979190611d25565b60405180910390fd5b81816040517f177e802f0000000000000000000000000000000000000000000000000000000081526004016118d69291906128b8565b60405180910390fd5b505050565b600080600090507a184f03e93ff9f4daa797ed6e38ed64bf6a1f0100000000000000008310611942577a184f03e93ff9f4daa797ed6e38ed64bf6a1f010000000000000000838161193857611937612889565b5b0492506040810190505b6d04ee2d6d415b85acef8100000000831061197f576d04ee2d6d415b85acef8100000000838161197557611974612889565b5b0492506020810190505b662386f26fc1000083106119ae57662386f26fc1000083816119a4576119a3612889565b5b0492506010810190505b6305f5e10083106119d7576305f5e10083816119cd576119cc612889565b5b0492506008810190505b61271083106119fc5761271083816119f2576119f1612889565b5b0492506004810190505b60648310611a1f5760648381611a1557611a14612889565b5b0492506002810190505b600a8310611a2e576001810190505b80915050919050565b60008073ffffffffffffffffffffffffffffffffffffffff168373ffffffffffffffffffffffffffffffffffffffff1614158015611aef57508273ffffffffffffffffffffffffffffffffffffffff168473ffffffffffffffffffffffffffffffffffffffff161480611ab05750611aaf8484610b47565b5b80611aee57508273ffffffffffffffffffffffffffffffffffffffff16611ad683610ed3565b73ffffffffffffffffffffffffffffffffffffffff16145b5b90509392505050565b6000604051905090565b600080fd5b600080fd5b600073ffffffffffffffffffffffffffffffffffffffff82169050919050565b6000611b3782611b0c565b9050919050565b611b4781611b2c565b8114611b5257600080fd5b50565b600081359050611b6481611b3e565b92915050565b600080fd5b600080fd5b6000601f19601f8301169050919050565b7f4e487b7100000000000000000000000000000000000000000000000000000000600052604160045260246000fd5b611bbd82611b74565b810181811067ffffffffffffffff82111715611bdc57611bdb611b85565b5b80604052505050565b6000611bef611af8565b9050611bfb8282611bb4565b919050565b600067ffffffffffffffff821115611c1b57611c1a611b85565b5b611c2482611b74565b9050602081019050919050565b82818337600083830152505050565b6000611c53611c4e84611c00565b611be5565b905082815260208101848484011115611c6f57611c6e611b6f565b5b611c7a848285611c31565b509392505050565b600082601f830112611c9757611c96611b6a565b5b8135611ca7848260208601611c40565b91505092915050565b60008060408385031215611cc757611cc6611b02565b5b6000611cd585828601611b55565b925050602083013567ffffffffffffffff811115611cf657611cf5611b07565b5b611d0285828601611c82565b9150509250929050565b6000819050919050565b611d1f81611d0c565b82525050565b6000602082019050611d3a6000830184611d16565b92915050565b60007fffffffff0000000000000000000000000000000000000000000000000000000082169050919050565b611d7581611d40565b8114611d8057600080fd5b50565b600081359050611d9281611d6c565b92915050565b600060208284031215611dae57611dad611b02565b5b6000611dbc84828501611d83565b91505092915050565b60008115159050919050565b611dda81611dc5565b82525050565b6000602082019050611df56000830184611dd1565b92915050565b600081519050919050565b600082825260208201905092915050565b60005b83811015611e35578082015181840152602081019050611e1a565b60008484015250505050565b6000611e4c82611dfb565b611e568185611e06565b9350611e66818560208601611e17565b611e6f81611b74565b840191505092915050565b60006020820190508181036000830152611e948184611e41565b905092915050565b611ea581611d0c565b8114611eb057600080fd5b50565b600081359050611ec281611e9c565b92915050565b600060208284031215611ede57611edd611b02565b5b6000611eec84828501611eb3565b91505092915050565b611efe81611b2c565b82525050565b6000602082019050611f196000830184611ef5565b92915050565b60008060408385031215611f3657611f35611b02565b5b6000611f4485828601611b55565b9250506020611f5585828601611eb3565b9150509250929050565b60008060408385031215611f7657611f75611b02565b5b6000611f8485828601611eb3565b925050602083013567ffffffffffffffff811115611fa557611fa4611b07565b5b611fb185828601611c82565b9150509250929050565b600080600060608486031215611fd457611fd3611b02565b5b6000611fe286828701611b55565b9350506020611ff386828701611b55565b925050604061200486828701611eb3565b9150509250925092565b60006020828403121561202457612023611b02565b5b600061203284828501611b55565b91505092915050565b61204481611dc5565b811461204f57600080fd5b50565b6000813590506120618161203b565b92915050565b6000806040838503121561207e5761207d611b02565b5b600061208c85828601611b55565b925050602061209d85828601612052565b9150509250929050565b600067ffffffffffffffff8211156120c2576120c1611b85565b5b6120cb82611b74565b9050602081019050919050565b60006120eb6120e6846120a7565b611be5565b90508281526020810184848401111561210757612106611b6f565b5b612112848285611c31565b509392505050565b600082601f83011261212f5761212e611b6a565b5b813561213f8482602086016120d8565b91505092915050565b6000806000806080858703121561216257612161611b02565b5b600061217087828801611b55565b945050602061218187828801611b55565b935050604061219287828801611eb3565b925050606085013567ffffffffffffffff8111156121b3576121b2611b07565b5b6121bf8782880161211a565b91505092959194509250565b600080604083850312156121e2576121e1611b02565b5b60006121f085828601611b55565b925050602061220185828601611b55565b9150509250929050565b7f4e487b7100000000000000000000000000000000000000000000000000000000600052601160045260246000fd5b600061224582611d0c565b915061225083611d0c565b92508282019050808211156122685761226761220b565b5b92915050565b600061227982611d0c565b91507fffffffffffffffffffffffffffffffffffffffffffffffffffffffffffffffff82036122ab576122aa61220b565b5b600182019050919050565b7f4e487b7100000000000000000000000000000000000000000000000000000000600052602260045260246000fd5b600060028204905060018216806122fd57607f821691505b6020821081036123105761230f6122b6565b5b50919050565b60008190508160005260206000209050919050565b60006020601f8301049050919050565b600082821b905092915050565b6000600883026123787fffffffffffffffffffffffffffffffffffffffffffffffffffffffffffffffff8261233b565b612382868361233b565b95508019841693508086168417925050509392505050565b6000819050919050565b60006123bf6123ba6123b584611d0c565b61239a565b611d0c565b9050919050565b6000819050919050565b6123d9836123a4565b6123ed6123e5826123c6565b848454612348565b825550505050565b600090565b6124026123f5565b61240d8184846123d0565b505050565b5b81811015612431576124266000826123fa565b600181019050612413565b5050565b601f8211156124765761244781612316565b6124508461232b565b8101602085101561245f578190505b61247361246b8561232b565b830182612412565b50505b505050565b600082821c905092915050565b60006124996000198460080261247b565b1980831691505092915050565b60006124b28383612488565b9150826002028217905092915050565b6124cb82611dfb565b67ffffffffffffffff8111156124e4576124e3611b85565b5b6124ee82546122e5565b6124f9828285612435565b600060209050601f83116001811461252c576000841561251a578287015190505b61252485826124a6565b86555061258c565b601f19841661253a86612316565b60005b828110156125625784890151825560018201915060208501945060208101905061253d565b8683101561257f578489015161257b601f891682612488565b8355505b6001600288020188555050505b505050505050565b7f4552433732314d657461646174613a2055524920736574206f66206e6f6e657860008201527f697374656e7420746f6b656e0000000000000000000000000000000000000000602082015250565b60006125f0602c83611e06565b91506125fb82612594565b604082019050919050565b6000602082019050818103600083015261261f816125e3565b9050919050565b600060608201905061263b6000830186611ef5565b6126486020830185611d16565b6126556040830184611ef5565b949350505050565b7f4552433732314d657461646174613a2055524920717565727920666f72206e6f60008201527f6e6578697374656e7420746f6b656e0000000000000000000000000000000000602082015250565b60006126b9602f83611e06565b91506126c48261265d565b604082019050919050565b600060208201905081810360008301526126e8816126ac565b9050919050565b600081905092915050565b600061270582611dfb565b61270f81856126ef565b935061271f818560208601611e17565b80840191505092915050565b7f2e6a736f6e000000000000000000000000000000000000000000000000000000600082015250565b60006127616005836126ef565b915061276c8261272b565b600582019050919050565b600061278382856126fa565b915061278f82846126fa565b915061279a82612754565b91508190509392505050565b600081519050919050565b600082825260208201905092915050565b60006127cd826127a6565b6127d781856127b1565b93506127e7818560208601611e17565b6127f081611b74565b840191505092915050565b60006080820190506128106000830187611ef5565b61281d6020830186611ef5565b61282a6040830185611d16565b818103606083015261283c81846127c2565b905095945050505050565b60008151905061285681611d6c565b92915050565b60006020828403121561287257612871611b02565b5b600061288084828501612847565b91505092915050565b7f4e487b7100000000000000000000000000000000000000000000000000000000600052601260045260246000fd5b60006040820190506128cd6000830185611ef5565b6128da6020830184611d16565b939250505056fe68747470733a2f2f62656967652d70617469656e742d6369636164612d3338382e6d7970696e6174612e636c6f75642f697066732fa2646970667358221220af5bbd6009d77087335113a74f5d283a1b4351a0b60264a7b9e71f580797908064736f6c63430008180033",
  "linkReferences": {},
  "deployedLinkReferences": {}
}